:100000000201D2BB010689828A83E0225002E722E4
:10001000BBFE02E32289828A83E4932275F008758D
:100020008200EF2FFFEE33FECD33CDCC33CCC58233
:1000300033C5829BED9AEC99E58298400CF582EEEF
:100040009BFEED9AFDEC99FC0FD5F0D6E4CEFBE4D7
:10005000CDFAE4CCF9A88222B800C1B90059BA009F
:100060002DEC8BF084CFCECDFCE5F0CBF97818EFFA
:100070002FFFEE33FEED33FDEC33FCEB33FB10D7FB
:1000800003994004EB99FB0FD8E5E4F9FA227818BC
:10009000EF2FFFEE33FEED33FDEC33FCC933C91017
:1000A000D7059BE99A4007EC9BFCE99AF90FD8E049
:1000B000E4C9FAE4CCFB2275F010EF2FFFEE33FE1B
:1000C000ED33FDCC33CCC833C810D7079BEC9AE88E
:1000D00099400AED9BFDEC9AFCE899F80FD5F0DA0F
:1000E000E4CDFBE4CCFAE4C8F922EB9FF5F0EA9EFC
:1000F00042F0E99D42F0E89C45F022E8600FECC335
:1001000013FCED13FDEE13FEEF13FFD8F1228F0B5E
:100110008E0A8D098C08D2D9439B90AB0BAA0AA9F1
:1001200009A8087F407E427D0F7C00120058C3E47E
:100130009FFF74049EFEE49DFDE49CFCEFE48F9D14
:10014000AB0BAA0AA909A8087F407E427D0FFC12CA
:100150000058C3E49FFF74049EFEE49DFDE49CFCF4
:1001600078081200FB8FBBD2AA2275F80175E8014E
:1001700075D80175C001759101E4F5F8F5E8F5D879
:10018000F5C0F591D2F97F807E25FDFC12010E7B32
:10019000FF7A0179DE12019B80FE228B088A098991
:1001A0000AAB08AA09A90A1200036013050AE50AA6
:1001B0007002050914F9120003FF1201C080E22247
:1001C000C2AA539BFD8F9CE59B30E1FB539BFDD264
:1001D000AA22787FE4F6D8FD75810B02016A486592
:1001E0006C6C6F2052617973696C69636F6E210D5D
:0201F0000A0003
:00000001FF
