:1000000002025CBB010689828A83E0225002E72259
:10001000BBFE02E32289828A83E4932275F008758D
:100020008200EF2FFFEE33FECD33CDCC33CCC58233
:1000300033C5829BED9AEC99E58298400CF582EEEF
:100040009BFEED9AFDEC99FC0FD5F0D6E4CEFBE4D7
:10005000CDFAE4CCF9A88222B800C1B90059BA009F
:100060002DEC8BF084CFCECDFCE5F0CBF97818EFFA
:100070002FFFEE33FEED33FDEC33FCEB33FB10D7FB
:1000800003994004EB99FB0FD8E5E4F9FA227818BC
:10009000EF2FFFEE33FEED33FDEC33FCC933C91017
:1000A000D7059BE99A4007EC9BFCE99AF90FD8E049
:1000B000E4C9FAE4CCFB2275F010EF2FFFEE33FE1B
:1000C000ED33FDCC33CCC833C810D7079BEC9AE88E
:1000D00099400AED9BFDEC9AFCE899F80FD5F0DA0F
:1000E000E4CDFBE4CCFAE4C8F922EB9FF5F0EA9EFC
:1000F00042F0E99D42F0E89C45F022E8600FECC335
:1001000013FCED13FDEE13FEEF13FFD8F12275F88B
:100110000175E80175D80175C001759101E4F5F824
:10012000F5E8F5D8F5C0F591D2F97F807E25FDFC84
:1001300012019E7BFF7A0279681201FA7BFF7A0234
:10014000797C1201FA7BFF7A0279AF1201FA7BFF08
:100150007A0279C11201FA902080E0FF12021F7B1F
:10016000FF7A0279C41201FA902081E0FF12021F87
:100170007BFF7A0279C41201FA902082E0FF12021A
:100180001F7BFF7A0279C41201FA902083E0FF12EC
:10019000021F7BFF7A0279C81201FA80FE228F0BC0
:1001A0008E0A8D098C08D2D9439B50AB0BAA0AA9A1
:1001B00009A8087F407E427D0F7C00120058C3E4EE
:1001C0009FFF74049EFEE49DFDE49CFCEFE48F9D84
:1001D000AB0BAA0AA909A8087F407E427D0FFC123A
:1001E0000058C3E49FFF74049EFEE49DFDE49CFC64
:1001F00078081200FB8FBBD2AA228B088A09890AD1
:10020000AB08AA09A90A1200036013050AE50A70DF
:1002100002050914F9120003FF12024A80E222AD1E
:1002200007EDC4540FFF12023712024AED540FFFBC
:1002300012023712024A22EFC3940A5006EF24300A
:10024000FE8004EF2437FEAF0622C2AA539BFD8F27
:100250009CE59B30E1FB539BFDD2AA22787FE4F61C
:10026000D8FD75810B02010E48656C6C6F205261E0
:100270007973696C69636F6E210D0A0052583846B4
:1002800031303320494150204D65617375726520CE
:1002900054657374204D6179203130203230323111
:1002A0002D2D2D2D31353A33323A31380D0A004992
:1002B0006E666F72205265616420444154413A2059
:0B02C000003078002C3078000D0A00A0
:00000001FF
