:10000000020213BB010689828A83E0225002E722A2
:10001000BBFE02E32289828A83E4932275F008758D
:100020008200EF2FFFEE33FECD33CDCC33CCC58233
:1000300033C5829BED9AEC99E58298400CF582EEEF
:100040009BFEED9AFDEC99FC0FD5F0D6E4CEFBE4D7
:10005000CDFAE4CCF9A88222B800C1B90059BA009F
:100060002DEC8BF084CFCECDFCE5F0CBF97818EFFA
:100070002FFFEE33FEED33FDEC33FCEB33FB10D7FB
:1000800003994004EB99FB0FD8E5E4F9FA227818BC
:10009000EF2FFFEE33FEED33FDEC33FCC933C91017
:1000A000D7059BE99A4007EC9BFCE99AF90FD8E049
:1000B000E4C9FAE4CCFB2275F010EF2FFFEE33FE1B
:1000C000ED33FDCC33CCC833C810D7079BEC9AE88E
:1000D00099400AED9BFDEC9AFCE899F80FD5F0DA0F
:1000E000E4CDFBE4CCFAE4C8F922EB9FF5F0EA9EFC
:1000F00042F0E99D42F0E89C45F022E8600FECC335
:1001000013FCED13FDEE13FEEF13FFD8F122E4F51F
:10011000F8F5E8F5D8F5C0F591F5F9F5FAF5FBF540
:1001200080F590F5A0D2807FFA7E001201EFC280A8
:10013000D2817FFA7E001201EFC281D2827FFA7EE5
:10014000001201EFC282D2837FFA7E001201EFC259
:1001500083D2847FFA7E001201EFC284D2857FFAB7
:100160007E001201EFC285D2867FFA7E001201EF77
:10017000C286D2877FFA7E001201EFC287D2907FBB
:10018000FA7E001201EFC290D2917FFA7E00120136
:10019000EFC291D2927FFA7E001201EFC292D29307
:1001A0007FFA7E001201EFC293D2947FFA7E001292
:1001B00001EFC294D2957FFA7E001201EFC295D270
:1001C000967FFA7E001201EFC296D2977FFA7E00E8
:1001D0001201EFC297D2A07FFA7E001201EFC2A0F7
:1001E000D2A17FFA7E001201EFC2A102012522E412
:1001F000FDFCFBFAC3ED9FEC9E5017E4FAFBC3EA4B
:10020000941050070BEB70010A80F30DED70010C98
:0F02100080E222787FE4F6D8FD75810702010EA7
:00000001FF
