:100000000201CDBB010689828A83E0225002E722E9
:10001000BBFE02E32289828A83E49322C5F0F8A31F
:10002000E028F0C5F0F8E582158270021583E0380B
:10003000F022A3F8E0C5F025F0F0E5821582700209
:100040001583E0C838F0E82275F008758200EF2FBC
:10005000FFEE33FECD33CDCC33CCC58233C5829B8E
:10006000ED9AEC99E58298400CF582EE9BFEED9AB4
:10007000FDEC99FC0FD5F0D6E4CEFBE4CDFAE4CC50
:10008000F9A88222B800C1B90059BA002DEC8BF052
:1000900084CFCECDFCE5F0CBF97818EF2FFFEE330F
:1000A000FEED33FDEC33FCEB33FB10D7039940043A
:1000B000EB99FB0FD8E5E4F9FA227818EF2FFFEE61
:1000C00033FEED33FDEC33FCC933C910D7059BE992
:1000D0009A4007EC9BFCE99AF90FD8E0E4C9FAE4EE
:1000E000CCFB2275F010EF2FFFEE33FEED33FDCC8D
:1000F00033CCC833C810D7079BEC9AE899400AED77
:100100009BFDEC9AFCE899F80FD5F0DAE4CDFBE41E
:10011000CCFAE4C8F922EB9FF5F0EA9E42F0E99DA3
:1001200042F0E89C45F022E8600FECC313FCED13AD
:10013000FDEE13FEEF13FFD8F122ECF0A3EDF0A3D8
:10014000EEF0A3EFF02290000012013AC28843893A
:1001500001D289E4FFFEFDFC900000E0F8A3E0F985
:10016000A3E0FAA3E0FBC31201166033758A307571
:100170008CF8308BFDC28B900000E0FCA3E0FDA367
:10018000E0FEA3E0FF74FFEF24FFFFEE34FFFEED7F
:1001900034FFFDEC34FFFC90000012013A80B4C241
:1001A0008922E4F5F8F5E8F5D8F5C0F59153F9FEA4
:1001B000D2807F017E007D007C00120146C2807FDC
:1001C000017E007D007C0012014680E422787FE4FD
:0901D000F6D8FD7581070201A2B9
:00000001FF
