:100000000202568B088A09890AAB08AA09A90A12B2
:1000100000366013050AE50A7002050914F912009A
:0800200036FF12024480E222C7
:10003300020141BB010689828A83E0225002E72242
:10004300BBFE02E32289828A83E4932275F008755A
:100053008200EF2FFFEE33FECD33CDCC33CCC58200
:1000630033C5829BED9AEC99E58298400CF582EEBC
:100073009BFEED9AFDEC99FC0FD5F0D6E4CEFBE4A4
:10008300CDFAE4CCF9A88222B800C1B90059BA006C
:100093002DEC8BF084CFCECDFCE5F0CBF97818EFC7
:1000A3002FFFEE33FEED33FDEC33FCEB33FB10D7C8
:1000B30003994004EB99FB0FD8E5E4F9FA22781889
:1000C300EF2FFFEE33FEED33FDEC33FCC933C910E4
:1000D300D7059BE99A4007EC9BFCE99AF90FD8E016
:1000E300E4C9FAE4CCFB2275F010EF2FFFEE33FEE8
:1000F300ED33FDCC33CCC833C810D7079BEC9AE85B
:1001030099400AED9BFDEC9AFCE899F80FD5F0DADB
:10011300E4CDFBE4CCFAE4C8F922EB9FF5F0EA9EC8
:1001230042F0E99D42F0E89C45F022E8600FECC301
:1001330013FCED13FDEE13FEEF13FFD8F122C0E025
:10014300C0F0C083C082C085C084C0925392FEC0F9
:10015300D075D000C000C001C002C003C004C005F8
:10016300C006C00753E77F7FAA120244AFF612020C
:1001730044AFEE1202447FEE120244D007D006D001
:1001830005D004D003D002D001D000D0D0D092D07B
:1001930084D085D082D083D0F0D0E0328F0B8E0A0A
:1001A3008D098C08D2D9439B90AB0BAA0AA909A845
:1001B300087F407E427D0F7C0012008BC3E49FFFCB
:1001C30074049EFEE49DFDE49CFCEFE48F9DAB0B69
:1001D300AA0AA909A8087F407E427D0FFC12008B62
:1001E300C3E49FFF74049EFEE49DFDE49CFC780839
:1001F30012012E8FBBD2AA22E4F5F8F5E8F5D8F563
:10020300C0F591D2F953E7F0D2C043E72053DF0F93
:1002130043DF1053FFF043FF0753FF0F43FF7043C8
:10022300EF0143EF2053E77FD2AE7F807E25FDFCB5
:1002330012019F7BFF7A027962120003D2AF80FE24
:1002430022C2AA539BFD8F9CE59B30E1FB539BFD90
:10025300D2AA22787FE4F6D8FD75810B0201FB4810
:10026300656C6C6F2052617973696C69636F6E2181
:030273000D0A0071
:00000001FF
