:100000000202F18B088A09890AAB08AA09A90A1217
:1000100000366013050AE50A7002050914F912009A
:0800200036FF1202DF80E2222C
:1000330002019DBB010689828A83E0225002E722E6
:10004300BBFE02E32289828A83E4932275F008755A
:100053008200EF2FFFEE33FECD33CDCC33CCC58200
:1000630033C5829BED9AEC99E58298400CF582EEBC
:100073009BFEED9AFDEC99FC0FD5F0D6E4CEFBE4A4
:10008300CDFAE4CCF9A88222B800C1B90059BA006C
:100093002DEC8BF084CFCECDFCE5F0CBF97818EFC7
:1000A3002FFFEE33FEED33FDEC33FCEB33FB10D7C8
:1000B30003994004EB99FB0FD8E5E4F9FA22781889
:1000C300EF2FFFEE33FEED33FDEC33FCC933C910E4
:1000D300D7059BE99A4007EC9BFCE99AF90FD8E016
:1000E300E4C9FAE4CCFB2275F010EF2FFFEE33FEE8
:1000F300ED33FDCC33CCC833C810D7079BEC9AE85B
:1001030099400AED9BFDEC9AFCE899F80FD5F0DADB
:10011300E4CDFBE4CCFAE4C8F922EB9FF5F0EA9EC8
:1001230042F0E99D42F0E89C45F022E8600FECC301
:1001330013FCED13FDEE13FEEF13FFD8F1228F0B2B
:100143008E0A8D098C08D2D9439B90AB0BAA0AA9BE
:1001530009A8087F407E427D0F7C0012008BC3E418
:100163009FFF74049EFEE49DFDE49CFCEFE48F9DE1
:10017300AB0BAA0AA909A8087F407E427D0FFC1297
:10018300008BC3E49FFF74049EFEE49DFDE49CFC8E
:10019300780812012E8FBBD2AA22C0E0C0F0C08320
:1001A300C082C085C084C0925392FEC0D075D00077
:1001B300C000C001C002C003C004C005C006C00720
:1001C30053E77F53EFDFAFF61202DFAFEE1202DF2A
:1001D300D007D006D005D004D003D002D001D00080
:1001E300D0D0D092D084D085D082D083D0F0D0E04C
:1001F30032E4F5F8F5E8F5D8F5C0F591D2F9D2C0B7
:1002030053E7BF43E72043EF0153DFEF53DFDF4300
:10021300DF4075FF7743EF207F807E25FDFC1201D1
:10022300417BFF7A037952120003D2AED2AF7FE84B
:100233007E037D007C00120247AFE712029143EF79
:100243002080EB228F0B8E0A8D098C08C28843898C
:1002530001D289E4FFFEFDFCAB0BAA0AA909A80899
:10026300C312011D6025758A30758CF8308BFDC271
:100273008B74FF250BF50BE50A34FFF50AE509340A
:10028300FFF509E50834FFF50880C8C28922AE07E7
:100293007BFF7A0279FD1200037BFF7A0379051253
:1002A3000003AF061202B47BFF7A0379091200033D
:1002B30022AD07EDC4540FFF1202CC1202DFED543E
:1002C3000FFF1202CC1202DF22EFC3940A5006EF93
:1002D3002430FE8004EF2437FEAF0622C2AA539BCC
:1002E300FD8F9CE59B30E1FB539BFDD2AA22787FD7
:1002F300E4F6D8FD75810B0201F4746573747265BD
:1003030067003D3058000D0A004941502055736580
:1003130072205265616420444154413A004941507E
:1003230020557365722057726974652044415441A6
:10033300204F4B0D0A0049415020557365722045EB
:10034300726173652044415441204F4B0D0A0048AC
:10035300656C6C6F2052617973696C69636F6E2190
:030363000D0A0080
:00000001FF
