:10000000020196BB010689828A83E0225002E72220
:10001000BBFE02E32289828A83E4932275F008758D
:100020008200EF2FFFEE33FECD33CDCC33CCC58233
:1000300033C5829BED9AEC99E58298400CF582EEEF
:100040009BFEED9AFDEC99FC0FD5F0D6E4CEFBE4D7
:10005000CDFAE4CCF9A88222B800C1B90059BA009F
:100060002DEC8BF084CFCECDFCE5F0CBF97818EFFA
:100070002FFFEE33FEED33FDEC33FCEB33FB10D7FB
:1000800003994004EB99FB0FD8E5E4F9FA227818BC
:10009000EF2FFFEE33FEED33FDEC33FCC933C91017
:1000A000D7059BE99A4007EC9BFCE99AF90FD8E049
:1000B000E4C9FAE4CCFB2275F010EF2FFFEE33FE1B
:1000C000ED33FDCC33CCC833C810D7079BEC9AE88E
:1000D00099400AED9BFDEC9AFCE899F80FD5F0DA0F
:1000E000E4CDFBE4CCFAE4C8F922EB9FF5F0EA9EFC
:1000F00042F0E99D42F0E89C45F022E8600FECC335
:1001000013FCED13FDEE13FEEF13FFD8F1228F0B5E
:100110008E0A8D098C08C28C438904D28DE4FFFEBF
:10012000FDFCAB0BAA0AA909A808C31200EA6025C6
:10013000758B30758DF8308FFDC28F74FF250BF5F0
:100140000BE50A34FFF50AE50934FFF509E5083443
:10015000FFF50880C8C28D2275F80175E80175D8D1
:100160000175C001759101E4F5F8F5E8F5D8F5C021
:10017000F591D2F953F9FED2FAD2807F2C7E017D1F
:10018000007C0012010EC2807F2C7E017D007C006D
:1001900012010E80E422787FE4F6D8FD75810B020F
:0201A000015804
:00000001FF
