:100000000201CC020131C0E0C0D0A298E43355987F
:0E001000600585990ED200C298D0D0D0E032A3
:10002300020006BB010689828A83E0225002E7228E
:10003300BBFE02E32289828A83E4932275F008756A
:100043008200EF2FFFEE33FECD33CDCC33CCC58210
:1000530033C5829BED9AEC99E58298400CF582EECC
:100063009BFEED9AFDEC99FC0FD5F0D6E4CEFBE4B4
:10007300CDFAE4CCF9A88222B800C1B90059BA007C
:100083002DEC8BF084CFCECDFCE5F0CBF97818EFD7
:100093002FFFEE33FEED33FDEC33FCEB33FB10D7D8
:1000A30003994004EB99FB0FD8E5E4F9FA22781899
:1000B300EF2FFFEE33FEED33FDEC33FCC933C910F4
:1000C300D7059BE99A4007EC9BFCE99AF90FD8E026
:1000D300E4C9FAE4CCFB2275F010EF2FFFEE33FEF8
:1000E300ED33FDCC33CCC833C810D7079BEC9AE86B
:1000F30099400AED9BFDEC9AFCE899F80FD5F0DAEC
:10010300E4CDFBE4CCFAE4C8F922EB9FF5F0EA9ED8
:1001130042F0E99D42F0E89C45F022E8600FECC311
:1001230013FCED13FDEE13FEEF13FFD8F122C0E035
:10013300C0F0C083C082C085C084C0925392FEC009
:10014300D075D000C000C001C002C003C004C00508
:10015300C006C007E5C230E0467FFF1203FC7FF70D
:100163001203FC7FEF1203FC7FE71203FC7FDF1215
:1001730003FC7FD71203FC7FCF1203FC7FC712035C
:10018300FC7FBF1203FC7FB71203FC7FAF1203FC9B
:100193007FA71203FC7F9F1203FC7F971203FC438C
:1001A300DB0175C20053DBFED007D006D005D004B7
:1001B300D003D002D001D000D0D0D092D084D0854B
:1001C300D082D083D0F0D0E032787FE4F6D8FD75CA
:1001D3008120020213020258E493A3F8E493A3409C
:1001E30003F68001F208DFF48029E493A3F85407AF
:1001F300240CC8C333C4540F4420C8834004F456AA
:10020300800146F6DFE4800B0102040810204080E1
:1002130090040EE47E019360BCA3FF543F30E509D4
:10022300541FFEE493A360010ECF54C025E060A8E1
:1002330040B8E493A3FAE493A3F8E493A3C8C58274
:10024300C8CAC583CAF0A3C8C582C8CAC583CADFE2
:10025300E9DEE780BEE4F5F8F5E8F5D8F5C0F591F9
:1002630075EC02D2F97F807E25FDFC1202D17F80DE
:100273007E257D007C0012032D7BFF7A04796E12AC
:10028300038943FA0153F2FE43EA0143CA01D2AFA1
:10029300E4F50F3000FDC200E50F14600F14601485
:1002A300240270EF850E08750F0180E7850E09752E
:1002B3000F0280DF850E0AE4F50FAF081203AEAF1D
:1002C300091203AEAF0A1203AE80C880C6228F1490
:1002D3008E138D128C11D2D8759850AB14AA13A912
:1002E30012A8117F407E427D0F7C0012007BC3E485
:1002F3009FFF74049EFEE49DFDE49CFCEFE48FAA43
:10030300AB14AA13A912A8117F407E427D0FFC12E1
:10031300007BC3E49FFF74049EFEE49DFDE49CFC0C
:10032300780812011E8FBAD2AC228F148E138D124D
:100333008C11D2D9439B90AB14AA13A912A8117F95
:10034300407E427D0F7C0012007BC3E49FFF740458
:100353009EFEE49DFDE49CFCEFE48F9DAB14AA1389
:10036300A912A8117F407E427D0FFC12007BC3E4DB
:100373009FFF74049EFEE49DFDE49CFC780812013B
:100383001E8FBBD2AA228B118A128913AB11AA1218
:10039300A91312002660130513E513700205121446
:1003A300F9120026FF1203FC80E222AE077BFF7ADC
:1003B3000479191203897BFF7A047921120389AF27
:1003C300061203D17BFF7A04792512038922AD0734
:1003D300EDC4540FFF1203E91203FCED540FFF1297
:1003E30003E91203FC22EFC3940A5006EF2430FE04
:1003F3008004EF2437FEAF0622C2AA539BFD8F9CD5
:10040300E59B30E1FB539BFDD2AA220308000000C9
:10041300030B0000000074657374726567003D3060
:1004230058000D0A004941502055736572205265EA
:10043300616420444154413A004941502055736559
:10044300722057726974652044415441204F4B0D0B
:100453000A004941502055736572204572617365E6
:100463002044415441204F4B0D0A004D4F4E35312E
:0804730020546573740D0A00AA
:00000001FF
